:100000000C9434000C9449000C9449000C94490061
:100010000C9449000C9449000C9449000C9449003C
:100020000C9449000C9449000C9449000C9449002C
:100030000C9449000C9449000C9449000C9449001C
:100040000C9449000C9449000C9449000C9449000C
:100050000C9449000C9449000C9449000C944900FC
:100060000C9449000C94490011241FBECFEFD8E036
:10007000DEBFCDBF11E0A0E0B1E0E8E2F7E002C0F2
:1000800005900D92A430B107D9F70E944B000C9453
:1000900092030C940000EF92FF920F931F93CF9363
:1000A000DF93CDB7DEB76C970FB6F894DEBF0FBE07
:1000B000CDBF84E290E024E230E0F90120812160AC
:1000C000FC012083E12CF12C01E010E028E030E07D
:1000D00040E855E260E07BE187EB90E00E9462013E
:1000E00085E290E021E0FC01208380E090E4ACE137
:1000F000B6E489839A83AB83BC8320E030E04AE78F
:1001000053E469817A818B819C810E94FD02DC012C
:10011000CB018D839E83AF83B88720E030E040E839
:100120005FE36D817E818F8198850E9477028823AD
:100130002CF481E090E09A8789873FC020E03FEF70
:100140004FE757E46D817E818F8198850E94F80288
:1001500018164CF520E030E040E251E469817A81E4
:100160008B819C810E94FD02DC01CB01BC01CD0191
:100170000E947C02DC01CB019A8789870FC089E14C
:1001800090E09C878B878B859C850197F1F79C87F6
:100190008B8789859A8501979A87898789859A852A
:1001A000892B69F714C06D817E818F8198850E94AB
:1001B0007C02DC01CB019A87898789859A859E8795
:1001C0008D878D859E850197F1F79E878D8785E2C6
:1001D00090E0FC01108280E090E4ACE1B6E48F870F
:1001E000988BA98BBA8B20E030E04AE753E46F8507
:1001F000788989899A890E94FD02DC01CB018B8B69
:100200009C8BAD8BBE8B20E030E040E85FE36B89D8
:100210007C898D899E890E94770288232CF481E055
:1002200090E0988F8F8B3FC020E03FEF4FE757E47F
:100230006B897C898D899E890E94F80218164CF57D
:1002400020E030E040E251E46F85788989899A891D
:100250000E94FD02DC01CB01BC01CD010E947C02A9
:10026000DC01CB01988F8F8B0FC089E190E09A8FD2
:10027000898F898D9A8D0197F1F79A8F898F8F8950
:10028000988D0197988F8F8B8F89988D892B69F71F
:1002900014C06B897C898D899E890E947C02DC0157
:1002A000CB01988F8F8B8F89988D9C8F8B8F8B8DA7
:1002B0009C8D0197F1F79C8F8B8F80E091E00E94DD
:1002C00025020ECFEF92FF920F931F93CF93DF93F0
:1002D000CDB7DEB762970FB6F894DEBF0FBECDBFC5
:1002E0006B837C838D839E8358874F833A872987CE
:1002F0001C870B87FE86ED868B819C81AD81BE813C
:10030000689413F8B695A795979587951694D1F7A5
:100310002F813885990140E050E0BC01CD010E9459
:100320005502DA01C90101979A83898385EC90E02F
:1003300029813A81232F3327FC01208384EC90E02C
:100340002981FC01208381EC90E028E1FC012083DD
:100350008D859E858130910519F0029739F00CC08A
:1003600082EC90E020E2FC01208306C082EC90E069
:1003700020E3FC01208300008B859C85029731F4EB
:1003800082EC90E028E0FC012083000089859A85BA
:100390008730910559F08830910571F0069791F4F6
:1003A00082EC90E022E0FC0120830CC082EC90E023
:1003B00024E0FC01208306C082EC90E026E0FC01F2
:1003C0002083000062960FB6F894DEBF0FBECDBF4B
:1003D000DF91CF911F910F91FF90EF900895CF93F0
:1003E000DF931F92CDB7DEB78983000080EC90E0E9
:1003F000FC018081882F90E080729927892BB1F3CE
:1004000086EC90E02981FC0120830F90DF91CF9151
:100410000895CF93DF9300D0CDB7DEB79A83898359
:10042000000080EC90E0FC018081882F90E08072D9
:100430009927892BB1F386EC90E02981FC01208378
:100440000F900F90DF91CF910895CF93DF9300D05D
:10045000CDB7DEB79A8389830BC089819A81FC016D
:1004600080810E94EF0189819A8101969A83898314
:1004700089819A81FC018081882379F70F900F9000
:10048000DF91CF910895CF93DF93CDB7DEB7000012
:1004900080EC90E0FC0180818823D4F786EC90E02A
:1004A000FC018081DF91CF910895A1E21A2EAA1B51
:1004B000BB1BFD010DC0AA1FBB1FEE1FFF1FA21714
:1004C000B307E407F50720F0A21BB30BE40BF50B11
:1004D000661F771F881F991F1A9469F7609570959A
:1004E000809590959B01AC01BD01CF0108950E94BC
:1004F000AB0208F481E008950E94D70288F09F576C
:1005000098F0B92F9927B751B0F0E1F0660F771F37
:10051000881F991F1AF0BA95C9F714C0B13091F02D
:100520000E94F102B1E008950C94F102672F782F38
:100530008827B85F39F0B93FCCF3869577956795F2
:10054000B395D9F73EF490958095709561957F4F5E
:100550008F4F9F4F0895990F0008550FAA0BE0E8A1
:10056000FEEF16161706E807F907C0F01216130675
:10057000E407F50798F0621B730B840B950B39F4B5
:100580000A2661F0232B242B252B21F408950A261B
:1005900009F4A140A6958FEF811D811D089557FD97
:1005A0009058440F551F59F05F3F71F04795880FE1
:1005B00097FB991F61F09F3F79F087950895121678
:1005C00013061406551FF2CF4695F1DF08C0161624
:1005D00017061806991FF1CF8695710561050894D5
:1005E0000895E894BB2766277727CB0197F90895EC
:1005F0000E94AB0208F48FEF08950E9410030C9440
:1006000081030E94730338F00E947A0320F095233F
:1006100011F00C946A030C94700311240C94F202F0
:100620000E94CF0270F3959FC1F3950F50E0551FC4
:10063000629FF001729FBB27F00DB11D639FAA2737
:10064000F00DB11DAA1F649F6627B00DA11D661F86
:10065000829F2227B00DA11D621F739FB00DA11DA7
:10066000621F839FA00D611D221F749F3327A00D61
:10067000611D231F849F600D211D822F762F6A2FFD
:1006800011249F5750409AF0F1F088234AF0EE0F62
:10069000FF1FBB1F661F771F881F91505040A9F78F
:1006A0009E3F510580F00C946A030C94F2025F3F68
:1006B000E4F3983ED4F3869577956795B795F795CB
:1006C000E7959F5FC1F7FE2B880F911D9695879543
:1006D00097F9089597F99F6780E870E060E00895C2
:1006E0009FEF80EC089500240A941616170618064A
:1006F0000906089500240A94121613061406050626
:100700000895092E0394000C11F4882352F0BB0FB6
:1007100040F4BF2B11F460FF04C06F5F7F4F8F4F19
:080720009F4F0895F894FFCFEC
:0407280061620A0000
:00000001FF
