:100000000C9434000C9473000C943E000C943E004D
:100010000C943E000C943E000C943E000C943E0068
:100020000C943E000C943E000C943E000C943E0058
:100030000C943E000C943E000C943E000C943E0048
:100040000C943E000C943E000C943E000C943E0038
:100050000C943E000C943E000C943E000C943E0028
:100060000C943E000C943E0011241FBECFEFD8E04C
:10007000DEBFCDBF0E9440000C943C020C940000F7
:10008000CF93DF93CDB7DEB784E290E024E230E097
:10009000F90120812160FC0120838AE290E02AE2BC
:1000A00030E0F90120812B7FFC0120838BE290E07E
:1000B0002BE230E0F90120812460FC01208389E6F5
:1000C00090E029E630E0F90120812260FC012083E4
:1000D0008DE390E02DE330E0F90120812160FC0107
:1000E00020837894FFCF1F920F9200905F000F92B1
:1000F00011242F933F934F935F936F937F938F932D
:100100009F93AF93BF93EF93FF93CF93DF93CDB7BD
:10011000DEB72E97DEBFCDBF85E290E021E0FC0187
:10012000208380E090E0A8ECB2E489839A83AB83DB
:10013000BC8320E030E84BE355E469817A818B8110
:100140009C810E94A701DC01CB018D839E83AF833C
:10015000B88720E030E040E85FE36D817E818F81E9
:1001600098850E94210188232CF481E090E09A87F1
:1001700089873FC020E03FEF4FE757E46D817E81E4
:100180008F8198850E94A20118164CF520E030E07E
:1001900040E251E469817A818B819C810E94A701B0
:1001A000DC01CB01BC01CD010E942601DC01CB01A9
:1001B0009A8789870FC08CE291E09C878B878B851B
:1001C0009C850197F1F79C878B8789859A85019794
:1001D0009A87898789859A85892B69F714C06D81EB
:1001E0007E818F8198850E942601DC01CB019A8750
:1001F000898789859A859E878D878D859E850197BC
:10020000F1F79E878D8785E290E0FC0110822E96A3
:100210000FB6F894DEBF0FBECDBFDF91CF91FF9137
:10022000EF91BF91AF919F918F917F916F915F916E
:100230004F913F912F910F9000925F000F901F9070
:1002400018950E94550108F481E008950E948101EB
:1002500088F09F5798F0B92F9927B751B0F0E1F087
:10026000660F771F881F991F1AF0BA95C9F714C037
:10027000B13091F00E949B01B1E008950C949B0174
:10028000672F782F8827B85F39F0B93FCCF3869570
:1002900077956795B395D9F73EF4909580957095CD
:1002A00061957F4F8F4F9F4F0895990F0008550F0D
:1002B000AA0BE0E8FEEF16161706E807F907C0F0EC
:1002C00012161306E407F50798F0621B730B840BF4
:1002D000950B39F40A2661F0232B242B252B21F4CE
:1002E00008950A2609F4A140A6958FEF811D811D6E
:1002F000089557FD9058440F551F59F05F3F71F016
:100300004795880F97FB991F61F09F3F79F087957C
:100310000895121613061406551FF2CF4695F1DF05
:1003200008C0161617061806991FF1CF8695710595
:10033000610508940895E894BB2766277727CB01C9
:1003400097F908950E94550108F48FEF08950E94CF
:10035000BA010C942B020E941D0238F00E94240264
:1003600020F0952311F00C9414020C941A0211241D
:100370000C949C010E94790170F3959FC1F3950F35
:1003800050E0551F629FF001729FBB27F00DB11D19
:10039000639FAA27F00DB11DAA1F649F6627B00DA9
:1003A000A11D661F829F2227B00DA11D621F739F92
:1003B000B00DA11D621F839FA00D611D221F749FA0
:1003C0003327A00D611D231F849F600D211D822FE7
:1003D000762F6A2F11249F5750409AF0F1F088230E
:1003E0004AF0EE0FFF1FBB1F661F771F881F91503B
:1003F0005040A9F79E3F510580F00C9414020C94D4
:100400009C015F3FE4F3983ED4F38695779567951A
:10041000B795F795E7959F5FC1F7FE2B880F911D64
:100420009695879597F9089597F99F6780E870E00A
:1004300060E008959FEF80EC089500240A9416165A
:10044000170618060906089500240A9412161306C2
:10045000140605060895092E0394000C11F4882350
:1004600052F0BB0F40F4BF2B11F460FF04C06F5F6C
:0C0470007F4F8F4F9F4F0895F894FFCFEF
:00000001FF
